{
  "_format": "hh-sol-artifact-1",
  "contractName": "NFTMarketplace",
  "sourceName": "contracts/NFTMarketplace.sol",
  "abi": [
    {
      "inputs": [],
      "stateMutability": "nonpayable",
      "type": "constructor"
    },
    {
      "anonymous": false,
      "inputs": [
        {
          "indexed": true,
          "internalType": "uint256",
          "name": "itemId",
          "type": "uint256"
        },
        {
          "indexed": true,
          "internalType": "address",
          "name": "nftContract",
          "type": "address"
        },
        {
          "indexed": true,
          "internalType": "uint256",
          "name": "tokenId",
          "type": "uint256"
        },
        {
          "indexed": false,
          "internalType": "address",
          "name": "seller",
          "type": "address"
        },
        {
          "indexed": false,
          "internalType": "address",
          "name": "owner",
          "type": "address"
        },
        {
          "indexed": false,
          "internalType": "uint256",
          "name": "price",
          "type": "uint256"
        },
        {
          "indexed": false,
          "internalType": "bool",
          "name": "sold",
          "type": "bool"
        }
      ],
      "name": "MarketItemCreated",
      "type": "event"
    },
    {
      "inputs": [],
      "name": "ItemsCreate",
      "outputs": [
        {
          "components": [
            {
              "internalType": "uint256",
              "name": "itemId",
              "type": "uint256"
            },
            {
              "internalType": "address",
              "name": "nftContract",
              "type": "address"
            },
            {
              "internalType": "uint256",
              "name": "tokenId",
              "type": "uint256"
            },
            {
              "internalType": "address payable",
              "name": "seller",
              "type": "address"
            },
            {
              "internalType": "address payable",
              "name": "owner",
              "type": "address"
            },
            {
              "internalType": "uint256",
              "name": "price",
              "type": "uint256"
            },
            {
              "internalType": "bool",
              "name": "sold",
              "type": "bool"
            }
          ],
          "internalType": "struct NFTMarketplace.MarketItem[]",
          "name": "",
          "type": "tuple[]"
        }
      ],
      "stateMutability": "view",
      "type": "function"
    },
    {
      "inputs": [
        {
          "internalType": "address",
          "name": "nftContract",
          "type": "address"
        },
        {
          "internalType": "uint256",
          "name": "tokenId",
          "type": "uint256"
        },
        {
          "internalType": "uint256",
          "name": "price",
          "type": "uint256"
        }
      ],
      "name": "createMarketItem",
      "outputs": [],
      "stateMutability": "payable",
      "type": "function"
    },
    {
      "inputs": [
        {
          "internalType": "address",
          "name": "nftContract",
          "type": "address"
        },
        {
          "internalType": "uint256",
          "name": "itemId",
          "type": "uint256"
        }
      ],
      "name": "createMarketSale",
      "outputs": [],
      "stateMutability": "payable",
      "type": "function"
    },
    {
      "inputs": [],
      "name": "fetchMarketItems",
      "outputs": [
        {
          "components": [
            {
              "internalType": "uint256",
              "name": "itemId",
              "type": "uint256"
            },
            {
              "internalType": "address",
              "name": "nftContract",
              "type": "address"
            },
            {
              "internalType": "uint256",
              "name": "tokenId",
              "type": "uint256"
            },
            {
              "internalType": "address payable",
              "name": "seller",
              "type": "address"
            },
            {
              "internalType": "address payable",
              "name": "owner",
              "type": "address"
            },
            {
              "internalType": "uint256",
              "name": "price",
              "type": "uint256"
            },
            {
              "internalType": "bool",
              "name": "sold",
              "type": "bool"
            }
          ],
          "internalType": "struct NFTMarketplace.MarketItem[]",
          "name": "",
          "type": "tuple[]"
        }
      ],
      "stateMutability": "view",
      "type": "function"
    },
    {
      "inputs": [],
      "name": "fetchMyNFTs",
      "outputs": [
        {
          "components": [
            {
              "internalType": "uint256",
              "name": "itemId",
              "type": "uint256"
            },
            {
              "internalType": "address",
              "name": "nftContract",
              "type": "address"
            },
            {
              "internalType": "uint256",
              "name": "tokenId",
              "type": "uint256"
            },
            {
              "internalType": "address payable",
              "name": "seller",
              "type": "address"
            },
            {
              "internalType": "address payable",
              "name": "owner",
              "type": "address"
            },
            {
              "internalType": "uint256",
              "name": "price",
              "type": "uint256"
            },
            {
              "internalType": "bool",
              "name": "sold",
              "type": "bool"
            }
          ],
          "internalType": "struct NFTMarketplace.MarketItem[]",
          "name": "",
          "type": "tuple[]"
        }
      ],
      "stateMutability": "view",
      "type": "function"
    },
    {
      "inputs": [],
      "name": "getListingPrice",
      "outputs": [
        {
          "internalType": "uint256",
          "name": "",
          "type": "uint256"
        }
      ],
      "stateMutability": "view",
      "type": "function"
    }
  ],
  "bytecode": "0x60806040526658d15e1762800060045534801561001b57600080fd5b50600160008190555033600360006101000a81548173ffffffffffffffffffffffffffffffffffffffff021916908373ffffffffffffffffffffffffffffffffffffffff16021790555061194f806100746000396000f3fe6080604052600436106100555760003560e01c80630f08efe01461005a57806312e8558514610085578063202e3740146100b057806358eb2df5146100db578063c23b139e146100f7578063f07bc26914610113575b600080fd5b34801561006657600080fd5b5061006f61013e565b60405161007c9190611572565b60405180910390f35b34801561009157600080fd5b5061009a61044b565b6040516100a79190611614565b60405180910390f35b3480156100bc57600080fd5b506100c5610455565b6040516100d29190611572565b60405180910390f35b6100f560048036038101906100f091906112ae565b6107ef565b005b610111600480360381019061010c9190611272565b610b52565b005b34801561011f57600080fd5b50610128610e0b565b6040516101359190611572565b60405180910390f35b6060600061014c60016111a3565b9050600061015a60026111a3565b8261016591906116cf565b90506000808267ffffffffffffffff8111156101aa577f4e487b7100000000000000000000000000000000000000000000000000000000600052604160045260246000fd5b6040519080825280602002602001820160405280156101e357816020015b6101d06111c7565b8152602001906001900390816101c85790505b50905060005b8481101561044057600073ffffffffffffffffffffffffffffffffffffffff166005600060018461021a9190611679565b815260200190815260200160002060040160009054906101000a900473ffffffffffffffffffffffffffffffffffffffff1673ffffffffffffffffffffffffffffffffffffffff16141561042d5760006001826102779190611679565b90506000600560008381526020019081526020016000209050806040518060e0016040529081600082015481526020016001820160009054906101000a900473ffffffffffffffffffffffffffffffffffffffff1673ffffffffffffffffffffffffffffffffffffffff1673ffffffffffffffffffffffffffffffffffffffff168152602001600282015481526020016003820160009054906101000a900473ffffffffffffffffffffffffffffffffffffffff1673ffffffffffffffffffffffffffffffffffffffff1673ffffffffffffffffffffffffffffffffffffffff1681526020016004820160009054906101000a900473ffffffffffffffffffffffffffffffffffffffff1673ffffffffffffffffffffffffffffffffffffffff1673ffffffffffffffffffffffffffffffffffffffff168152602001600582015481526020016006820160009054906101000a900460ff161515151581525050848681518110610410577f4e487b7100000000000000000000000000000000000000000000000000000000600052603260045260246000fd5b60200260200101819052506001856104289190611679565b945050505b80806104389061175d565b9150506101e9565b508094505050505090565b6000600454905090565b6060600061046360016111a3565b905060008060005b8381101561050c573373ffffffffffffffffffffffffffffffffffffffff166005600060018461049b9190611679565b815260200190815260200160002060040160009054906101000a900473ffffffffffffffffffffffffffffffffffffffff1673ffffffffffffffffffffffffffffffffffffffff1614156104f9576001836104f69190611679565b92505b80806105049061175d565b91505061046b565b5060008267ffffffffffffffff81111561054f577f4e487b7100000000000000000000000000000000000000000000000000000000600052604160045260246000fd5b60405190808252806020026020018201604052801561058857816020015b6105756111c7565b81526020019060019003908161056d5790505b50905060005b848110156107e4573373ffffffffffffffffffffffffffffffffffffffff16600560006001846105be9190611679565b815260200190815260200160002060040160009054906101000a900473ffffffffffffffffffffffffffffffffffffffff1673ffffffffffffffffffffffffffffffffffffffff1614156107d157600060018261061b9190611679565b90506000600560008381526020019081526020016000209050806040518060e0016040529081600082015481526020016001820160009054906101000a900473ffffffffffffffffffffffffffffffffffffffff1673ffffffffffffffffffffffffffffffffffffffff1673ffffffffffffffffffffffffffffffffffffffff168152602001600282015481526020016003820160009054906101000a900473ffffffffffffffffffffffffffffffffffffffff1673ffffffffffffffffffffffffffffffffffffffff1673ffffffffffffffffffffffffffffffffffffffff1681526020016004820160009054906101000a900473ffffffffffffffffffffffffffffffffffffffff1673ffffffffffffffffffffffffffffffffffffffff1673ffffffffffffffffffffffffffffffffffffffff168152602001600582015481526020016006820160009054906101000a900460ff1615151515815250508486815181106107b4577f4e487b7100000000000000000000000000000000000000000000000000000000600052603260045260246000fd5b60200260200101819052506001856107cc9190611679565b945050505b80806107dc9061175d565b91505061058e565b508094505050505090565b60026000541415610835576040517f08c379a000000000000000000000000000000000000000000000000000000000815260040161082c906115f4565b60405180910390fd5b600260008190555060008111610880576040517f08c379a0000000000000000000000000000000000000000000000000000000008152600401610877906115d4565b60405180910390fd5b60045434146108c4576040517f08c379a00000000000000000000000000000000000000000000000000000000081526004016108bb90611594565b60405180910390fd5b6108ce60016111b1565b60006108da60016111a3565b90506040518060e001604052808281526020018573ffffffffffffffffffffffffffffffffffffffff1681526020018481526020013373ffffffffffffffffffffffffffffffffffffffff168152602001600073ffffffffffffffffffffffffffffffffffffffff16815260200183815260200160001515815250600560008381526020019081526020016000206000820151816000015560208201518160010160006101000a81548173ffffffffffffffffffffffffffffffffffffffff021916908373ffffffffffffffffffffffffffffffffffffffff1602179055506040820151816002015560608201518160030160006101000a81548173ffffffffffffffffffffffffffffffffffffffff021916908373ffffffffffffffffffffffffffffffffffffffff16021790555060808201518160040160006101000a81548173ffffffffffffffffffffffffffffffffffffffff021916908373ffffffffffffffffffffffffffffffffffffffff16021790555060a0820151816005015560c08201518160060160006101000a81548160ff0219169083151502179055509050508373ffffffffffffffffffffffffffffffffffffffff166323b872dd3330866040518463ffffffff1660e01b8152600401610abb939291906114f6565b600060405180830381600087803b158015610ad557600080fd5b505af1158015610ae9573d6000803e3d6000fd5b50505050828473ffffffffffffffffffffffffffffffffffffffff16827f045dfa01dcba2b36aba1d3dc4a874f4b0c5d2fbeb8d2c4b34a7d88c8d8f929d13330876000604051610b3c949392919061152d565b60405180910390a4506001600081905550505050565b60026000541415610b98576040517f08c379a0000000000000000000000000000000000000000000000000000000008152600401610b8f906115f4565b60405180910390fd5b6002600081905550600060056000838152602001908152602001600020600501549050600060056000848152602001908152602001600020600201549050813414610c18576040517f08c379a0000000000000000000000000000000000000000000000000000000008152600401610c0f906115b4565b60405180910390fd5b6005600084815260200190815260200160002060030160009054906101000a900473ffffffffffffffffffffffffffffffffffffffff1673ffffffffffffffffffffffffffffffffffffffff166108fc349081150290604051600060405180830381858888f19350505050158015610c94573d6000803e3d6000fd5b508373ffffffffffffffffffffffffffffffffffffffff166323b872dd3033846040518463ffffffff1660e01b8152600401610cd2939291906114f6565b600060405180830381600087803b158015610cec57600080fd5b505af1158015610d00573d6000803e3d6000fd5b50505050336005600085815260200190815260200160002060040160006101000a81548173ffffffffffffffffffffffffffffffffffffffff021916908373ffffffffffffffffffffffffffffffffffffffff16021790555060016005600085815260200190815260200160002060060160006101000a81548160ff021916908315150217905550610d9260026111b1565b600360009054906101000a900473ffffffffffffffffffffffffffffffffffffffff1673ffffffffffffffffffffffffffffffffffffffff166108fc6004549081150290604051600060405180830381858888f19350505050158015610dfc573d6000803e3d6000fd5b50505060016000819055505050565b60606000610e1960016111a3565b905060008060005b83811015610ec1573373ffffffffffffffffffffffffffffffffffffffff1660056000600184610e519190611679565b815260200190815260200160002060030160009054906101000a900473ffffffffffffffffffffffffffffffffffffffff1673ffffffffffffffffffffffffffffffffffffffff161415610eae578280610eaa9061175d565b9350505b8080610eb99061175d565b915050610e21565b5060008267ffffffffffffffff811115610f04577f4e487b7100000000000000000000000000000000000000000000000000000000600052604160045260246000fd5b604051908082528060200260200182016040528015610f3d57816020015b610f2a6111c7565b815260200190600190039081610f225790505b50905060005b84811015611198573373ffffffffffffffffffffffffffffffffffffffff1660056000600184610f739190611679565b815260200190815260200160002060030160009054906101000a900473ffffffffffffffffffffffffffffffffffffffff1673ffffffffffffffffffffffffffffffffffffffff161415611185576000600182610fd09190611679565b90506000600560008381526020019081526020016000209050806040518060e0016040529081600082015481526020016001820160009054906101000a900473ffffffffffffffffffffffffffffffffffffffff1673ffffffffffffffffffffffffffffffffffffffff1673ffffffffffffffffffffffffffffffffffffffff168152602001600282015481526020016003820160009054906101000a900473ffffffffffffffffffffffffffffffffffffffff1673ffffffffffffffffffffffffffffffffffffffff1673ffffffffffffffffffffffffffffffffffffffff1681526020016004820160009054906101000a900473ffffffffffffffffffffffffffffffffffffffff1673ffffffffffffffffffffffffffffffffffffffff1673ffffffffffffffffffffffffffffffffffffffff168152602001600582015481526020016006820160009054906101000a900460ff161515151581525050848681518110611169577f4e487b7100000000000000000000000000000000000000000000000000000000600052603260045260246000fd5b6020026020010181905250848061117f9061175d565b95505050505b80806111909061175d565b915050610f43565b508094505050505090565b600081600001549050919050565b6001816000016000828254019250508190555050565b6040518060e0016040528060008152602001600073ffffffffffffffffffffffffffffffffffffffff16815260200160008152602001600073ffffffffffffffffffffffffffffffffffffffff168152602001600073ffffffffffffffffffffffffffffffffffffffff168152602001600081526020016000151581525090565b600081359050611257816118eb565b92915050565b60008135905061126c81611902565b92915050565b6000806040838503121561128557600080fd5b600061129385828601611248565b92505060206112a48582860161125d565b9150509250929050565b6000806000606084860312156112c357600080fd5b60006112d186828701611248565b93505060206112e28682870161125d565b92505060406112f38682870161125d565b9150509250925092565b6000611309838361144a565b60e08301905092915050565b61131e81611715565b82525050565b61132d81611703565b82525050565b61133c81611703565b82525050565b600061134d8261163f565b6113578185611657565b93506113628361162f565b8060005b8381101561139357815161137a88826112fd565b97506113858361164a565b925050600181019050611366565b5085935050505092915050565b6113a981611727565b82525050565b6113b881611727565b82525050565b60006113cb602583611668565b91506113d6826117d5565b604082019050919050565b60006113ee604083611668565b91506113f982611824565b604082019050919050565b6000611411603183611668565b915061141c82611873565b604082019050919050565b6000611434601f83611668565b915061143f826118c2565b602082019050919050565b60e08201600082015161146060008501826114d8565b5060208201516114736020850182611324565b50604082015161148660408501826114d8565b5060608201516114996060850182611315565b5060808201516114ac6080850182611315565b5060a08201516114bf60a08501826114d8565b5060c08201516114d260c08501826113a0565b50505050565b6114e181611753565b82525050565b6114f081611753565b82525050565b600060608201905061150b6000830186611333565b6115186020830185611333565b61152560408301846114e7565b949350505050565b60006080820190506115426000830187611333565b61154f6020830186611333565b61155c60408301856114e7565b61156960608301846113af565b95945050505050565b6000602082019050818103600083015261158c8184611342565b905092915050565b600060208201905081810360008301526115ad816113be565b9050919050565b600060208201905081810360008301526115cd816113e1565b9050919050565b600060208201905081810360008301526115ed81611404565b9050919050565b6000602082019050818103600083015261160d81611427565b9050919050565b600060208201905061162960008301846114e7565b92915050565b6000819050602082019050919050565b600081519050919050565b6000602082019050919050565b600082825260208201905092915050565b600082825260208201905092915050565b600061168482611753565b915061168f83611753565b9250827fffffffffffffffffffffffffffffffffffffffffffffffffffffffffffffffff038211156116c4576116c36117a6565b5b828201905092915050565b60006116da82611753565b91506116e583611753565b9250828210156116f8576116f76117a6565b5b828203905092915050565b600061170e82611733565b9050919050565b600061172082611733565b9050919050565b60008115159050919050565b600073ffffffffffffffffffffffffffffffffffffffff82169050919050565b6000819050919050565b600061176882611753565b91507fffffffffffffffffffffffffffffffffffffffffffffffffffffffffffffffff82141561179b5761179a6117a6565b5b600182019050919050565b7f4e487b7100000000000000000000000000000000000000000000000000000000600052601160045260246000fd5b7f5072696365206d7573742062657420657175616c20746f206c697374696e672060008201527f7072696365000000000000000000000000000000000000000000000000000000602082015250565b7f506c65617365207375626d6974207468652061736b696e67207072696365206960008201527f6e206f7264657220746f20636f6d706c65746520746865207075726368617365602082015250565b7f5072696365206d75737420626520657175616c206f722067726561746572207460008201527f68616e206c697374696e67207072696365000000000000000000000000000000602082015250565b7f5265656e7472616e637947756172643a207265656e7472616e742063616c6c00600082015250565b6118f481611703565b81146118ff57600080fd5b50565b61190b81611753565b811461191657600080fd5b5056fea264697066735822122096e3738dd9dab40396590b196eeee4a4624e6a9822c392a947743ef811cf46d664736f6c63430008040033",
  "linkReferences": {},
  "deployedLinkReferences": {}
}